:10A0000028A2FF1F11A400004FA700004FA70000C7
:10A010000000000000000000000000000000000040
:10A020000000000000000000000000004FA700003A
:10A0300000000000000000004FA700003BA500004A
:10A0400079A6000081A6000089A6000091A6000064
:10A0500099A60000A1A6000009A7000009A700001A
:10A0600009A7000009A70000A9A6000009A7000091
:10A07000B1A60000B9A60000C1A60000C9A6000054
:10A0800009A7000009A7000009A7000009A7000010
:10A0900009A7000009A7000009A7000009A7000000
:10A0A00009A7000009A7000009A7000009A70000F0
:10A0B00009A7000009A7000009A7000009A70000E0
:10A0C00009A7000009A7000009A7000009A70000D0
:10A0D000D1A60000D9A6000009A70000E1A6000053
:10A0E00009A7000009A7000009A7000009A70000B0
:10A0F00009A7000009A7000009A7000009A70000A0
:10A1000009A7000009A7000009A7000009A700008F
:10A1100009A7000009A7000009A7000009A700007F
:10A12000E9A60000F1A60000F9A6000001A70000C2
:10A1300009A7000009A7000009A7000009A700005F
:10A14000FFFFFFFFFFFFFFFFFFFFFFFFFFFFFFFF1F
:10A15000FFFFFFFFFFFFFFFFFFFFFFFFFFFFFFFF0F
:10A16000FFFFFFFFFFFFFFFFFFFFFFFFFFFFFFFFFF
:10A3C0006B636667FFFFFFFFFFFFFFFFFFFFFFFFFE
:10A3D000FFFF8813FFFFFFFFFFFFFFFFFFFFFFFFF0
:10A3E000FFFFFFFFFFFFFFFFFFFFFFFFFFFFFFFF7D
:10A3F000FFFFFFFFFFFFFFFFFFFFFFFFFFFFFFFF6D
:10A40000FFFFFFFFFFFFFFFFFFFFFFFFFE3DFFFF1F
:10A4100072B60E480E4988600022002300240025F1
:10A4200000260027B846B946BA46BB46BC4609488E
:10A43000854609488047094880470948804762B6F1
:10A4400000200021074A9047FEE7000000A000001E
:10A4500000ED00E028A2FF1F11A700005DA500008D
:10A4600095A5000069A4000070B52348416BF8224F
:10A4700092010A4342630168C02292020A430260C9
:10A4800000201E4D69462A5C0A70810069188026EA
:10A4900076004A686B461B789B00D65009694A696A
:10A4A0006B461B7801269E4016434E61401C0328D4
:10A4B000E8DB00F025F80026002081006918096912
:10A4C0000A6894462A5C01239340624613430B605A
:10A4D000401C0328F1DBB000281801690A68AB5D55
:10A4E0000120984082430A60FA20800000F01FF8A3
:10A4F000761C032EE0D1DEE70480044000A0FF1F9D
:10A5000012480068800A401E8021490488420DD20A
:10A510000F4948600F4802681202120AC0231B0646
:10A5200013430360002088600720086070470A49D1
:10A53000086008680028FCD17047074801680029B6
:10A5400002D00168491E0160704700001CA0FF1F77
:10A5500010E000E020ED00E020A0FF1F80B51148D2
:10A560001149086011491248421A1248884203D022
:10A57000002A01D000F02EF80F481049091A01D026
:10A5800000F078F80E490F48421A02D00E4800F049
:10A5900021F801BD0020C0430C4908600C49086047
:10A5A0007047000000A0000008ED00E098A7000040
:10A5B000B8A7000000A0FF1F20A0FF1F24A0FF1FBE
:10A5C00010A8000010A8000024A0FF1F80E100E0F8
:10A5D00080E200E0124207D08B0706D00B78491CBE
:10A5E0000370401C521EF7D87047830706D00B78C3
:10A5F000491C0370401C521EF9D1704770B4103AC8
:10A6000003D378C9103A78C0FBD2530701D318C9D5
:10A6100018C001D508C908C0D20704D30B8803802D
:10A62000891C801C002A01D50B78037070BC704710
:10A63000094205D0830705D00270401C491EF9D19C
:10A6400070470000130030B414001500103902D315
:10A6500010393CC0FCD2490700D30CC000D504C05F
:10A66000890002D30280801C002900D5027030BC12
:10A67000704700000022DBE70048004709A7000000
:10A680000048004709A700000048004709A700004C
:10A690000048004709A700000048004709A700003C
:10A6A0000048004709A700000048004709A700002C
:10A6B0000048004709A700000048004709A700001C
:10A6C0000048004709A700000048004709A700000C
:10A6D0000048004709A700000048004709A70000FC
:10A6E0000048004709A700000048004709A70000EC
:10A6F0000048004709A700000048004709A70000DC
:10A700000048004709A700000048004709A70000CB
:10A7100004480549C1810549C181E92149000180F9
:10A72000704700BF0020054020C5000028D9000068
:10A7300000F00BF8002801D000F00AF80020C04615
:10A74000C046FFF791FE00F017F801207047FEE7C2
:10A7500010B5074979441831064C7C44163404E09E
:10A76000081D0A68891888470100A142F8D110BD68
:10A77000900000009C00000080B500F001F801BDD1
:10A780000746384600F002F8FBE7000020210903E5
:10A7900026311820ABBEF9E70102030000B00440E7
:10A7A00000B0044000B0044080F00F4080F00F4043
:10A7B00080F00F4000004001C046C046C046C04681
:10A7C000FFF7B6FF70B40121002313E00468001DF9
:10A7D0000C4202D04D466D1E64192360241D121FC9
:10A7E000042AFAD22500960701D52380AD1C0A4021
:10A7F00000D02B700268001D002AE7D170BC7047A2
:10A80000C5FFFFFF0400000020A0FF1F00000000A4
:040000050000A41142
:00000001FF
