S01500006C65645F64656D6F5F515350492E737265633A
S1130000F0FF0220111500680D1500684F150068F7
S11300105B150068991500689B15006800000000D6
S11300200000000000000000000000009D150068B2
S11300309F15006800000000A115006821120068E7
S11300409115006891150068911500689115006874
S11300509115006891150068911500689115006864
S11300609115006891150068911500689115006854
S11300709115006891150068911500689115006844
S11303C06B636667FFFFFFFFFFFFFFFFFFFFFFFF9A
S11303D017FFF401FFFFFFFFFFFFFFFF01FF010015
S11303E0FFFFFFFF001000000000000000000000FD
S11303F0FFFFFFFF000000000000000000000000FD
S1130400FFFFFFFFFFFFFFFFFFFFFFFFFEBDFFFF3B
S31568001000DFF800F001FCFF1F10B500F06FF8FFF77E
S31568001010F7FF00F018F800F0E3F80124200000F06C
S315680010204CF84FF4FA7000F0F3F8200000F045F839
S315680010306400052C00D3012400F06FF80028EDD079
S3156800104000F0F6F8EAE780B53E48006850F4785054
S315680010503C4908604FF480703B4908604FF48070E3
S315680010603A4908604FF48070394908603948006821
S3156800107050F48070374908603648006850F400704C
S31568001080344908603348006850F480603149086024
S315680010903148006850F480702F4908602E4800680F
S315680010A050F400702C4908602B48006850F4806042
S315680010B02949086000F026F801BDC10705D526490B
S315680010C0096851F48071244A1160810705D522495F
S315680010D0096851F40071204A1160400705D51E4819
S315680010E0006850F480601C49086070471B481C49BA
S315680010F01C4A04E003781370401C521C491E0029E0
S31568001100F8D170474FF4807017490860174800682F
S3156800111030F0100015490860704715480068C00629
S3156800112005D414480068401C1249086002E0002093
S31568001130104908600F480068022801D1012000E0C4
S31568001140002070473880044020B0245424B02454CA
S3156800115028B0245494F00F408CF00F408C1200682D
S315680011606001000000FCFF1F1090245414F00F402B
S3156800117010F00F400400FF1F40B2002808D509018F
S315680011801C4A40B210F00F00801800F8041C03E0F7
S315680011900901194A40B28154704780B5411EB1F1C0
S315680011A0807F01D301200EE0401E144908600F219C
S315680011B05FF0FF30FFF7E0FF002011490860072065
S315680011C010490860002002BD0F48006870470E4944
S315680011D0086070470C480068401E0B4908607047F5
S315680011E080B50A4800684FF47A71B0FBF1F0FFF7F2
S315680011F0D4FF01BD18ED00E000E400E014E000E073
S3156800120018E000E010E000E00800FF1F0000FF1F84
S3156800121080B5FFF7DCFFFFF7D7FF0028FBD101BDDC
S3156800122080B5FFF7D1FF002801D0FFF7D3FF01BDD6
S3156800123030B58BB072B61348046804A8216949684A
S3156800124088474FF48060002105E002686B4643F8E2
S315680012502120001D491C0429F7D30B4B4FF400626B
S31568001260002104A825692D69A84710236A464FF40A
S31568001270806104A825696D69A847002021688847A8
S315680012800BB030BD1C00001C6B66656B81B072B616
S315680012904FF48040414908605FF08A7040490860B1
S315680012A04048007810F01F003E4908703E480078B4
S315680012B050F004003C4908703C480078C006FBD5ED
S315680012C00420394908708020394908700020394956
S315680012D008703948006850F4007037490860374824
S315680012E00068374908403549086036480068344917
S315680012F008403449086000203349087024202C4986
S31568001300087080203149087000202A490870A22098
S3156800131025490870254800788007FBD5214800785C
S3156800132010F01F001F490870002029490870042022
S31568001330284908702748007850F040002549087009
S315680013401A4800784006FBD51748007810F03F0029
S31568001350154908700020009003E000BF0098401C03
S31568001360009000981C498842F7D31C4800680028FA
S3156800137003D15FF080701949086002201849086037
S31568001380002006490860BFF34F8FBFF36F8F62B6C0
S3156800139014481549086001B0704700BF00A00D5792
S315680013A0448004400340064000400640064006402C
S315680013B0014006400C40064038800440489004408E
S315680013C0FFF8FFFE4C900440084006400050064077
S315680013D00440064005400640C0D4010000A07D5C7C
S315680013E024A02D50000E27070000FF1F0C480D494A
S315680013F0884210D0002006E00A4951F82010084AB1
S3156800140042F82010401C0849B0EB910FF4D3044809
S315680014100649086002E0034804490860704700BF4F
S3156800142000000000000000000000000008ED00E079
S3156800143019E050F8041BCB0744BFA9F101035918FA
S31568001440121F0023042A41F8043BF9D25FEA827C22
S315680014500B4604D54FF0000CA1F800C09B1CD107C1
S3156800146044BF0021197050F8042B002AE1D1704757
S3156800147010B450F8041B79B1026843681218083032
S31568001480DC0744BFA9F10104E31852F8044B43F89A
S31568001490044B091FF9D1ECE710BC704710B5074932
S315680014A079441831064C7C44163404E00A68081DF1
S315680014B0511888470146A142F8D110BD2C0000009A
S315680014C04C0000004EF68851CEF20001086840F4E0
S315680014D070000860BFF34F8FBFF36F8F4FF00070D7
S315680014E0E1EE100A7047000049FFFFFF08000000A0
S315680014F00400FF1F0000000079FFFFFF04000000E2
S31568001500940000000000FF1F00000000FEE70000D6
S3156800151072B6034880470348804762B60248004768
S3156800152071150068ED1300688515006800F00BF802
S31568001530002801D0FFF7B2FF0020C046C046FFF77B
S3156800154063FD00F002F80120704700F001B8FEE77D
S315680015500746384600F002F8FBE7FEE780B5C04666
S31568001560C046024A11001820ABBEFBE726000200FF
S315680015700348006850F4700001490860704700002D
S3156800158088ED00E0C046C046FFF79CFFFFF7CEFF38
S31568001590FFF7FEBF00D8B805FEE7FEE7FEE7FEE701
S307680015A0FEE7F6
S70568001585F8
